{
  "contractName": "contrat",
  "abi": [
    {
      "constant": true,
      "inputs": [
        {
          "name": "",
          "type": "uint256"
        }
      ],
      "name": "tasks",
      "outputs": [
        {
          "name": "id",
          "type": "uint256"
        },
        {
          "name": "seller",
          "type": "string"
        },
        {
          "name": "buyer",
          "type": "string"
        },
        {
          "name": "type_immoblier",
          "type": "string"
        },
        {
          "name": "price",
          "type": "string"
        },
        {
          "name": "date",
          "type": "uint256"
        },
        {
          "name": "completed",
          "type": "bool"
        }
      ],
      "payable": false,
      "stateMutability": "view",
      "type": "function",
      "signature": "0x8d977672"
    },
    {
      "constant": true,
      "inputs": [],
      "name": "taskCount",
      "outputs": [
        {
          "name": "",
          "type": "uint256"
        }
      ],
      "payable": false,
      "stateMutability": "view",
      "type": "function",
      "signature": "0xb6cb58a5"
    },
    {
      "inputs": [],
      "payable": false,
      "stateMutability": "nonpayable",
      "type": "constructor",
      "signature": "constructor"
    },
    {
      "anonymous": false,
      "inputs": [
        {
          "indexed": false,
          "name": "id",
          "type": "uint256"
        },
        {
          "indexed": false,
          "name": "seller",
          "type": "string"
        },
        {
          "indexed": false,
          "name": "buyer",
          "type": "string"
        },
        {
          "indexed": false,
          "name": "type_immoblier",
          "type": "string"
        },
        {
          "indexed": false,
          "name": "price",
          "type": "string"
        },
        {
          "indexed": false,
          "name": "date",
          "type": "uint256"
        },
        {
          "indexed": false,
          "name": "completed",
          "type": "bool"
        }
      ],
      "name": "TaskCreated",
      "type": "event",
      "signature": "0x399624fb5e2373ffcdfcdb84cfad417518dd52d374862522a8a11fafe4288835"
    },
    {
      "anonymous": false,
      "inputs": [
        {
          "indexed": false,
          "name": "id",
          "type": "uint256"
        },
        {
          "indexed": false,
          "name": "completed",
          "type": "bool"
        }
      ],
      "name": "taskCompleted",
      "type": "event",
      "signature": "0xfc8c3643622669a0bb21133ffa1738f6d5c2df6b162da4fed93691abb53c4656"
    },
    {
      "constant": false,
      "inputs": [
        {
          "name": "_seller",
          "type": "string"
        },
        {
          "name": "_buyer",
          "type": "string"
        },
        {
          "name": "_type_immoblier",
          "type": "string"
        },
        {
          "name": "_price",
          "type": "string"
        }
      ],
      "name": "createTask",
      "outputs": [],
      "payable": false,
      "stateMutability": "nonpayable",
      "type": "function",
      "signature": "0x72a9f819"
    },
    {
      "constant": false,
      "inputs": [
        {
          "name": "_id",
          "type": "uint256"
        }
      ],
      "name": "toggleCompleted",
      "outputs": [],
      "payable": false,
      "stateMutability": "nonpayable",
      "type": "function",
      "signature": "0x455f5024"
    }
  ],
  "bytecode": "0x6080604052600080553480156200001557600080fd5b50620001076040805190810160405280601781526020017f4d7920666972737420736d61727420636f6e74726163740000000000000000008152506040805190810160405280600381526020017f6e6f6d00000000000000000000000000000000000000000000000000000000008152506040805190810160405280600481526020017f70707070000000000000000000000000000000000000000000000000000000008152506040805190810160405280600581526020017f70707070700000000000000000000000000000000000000000000000000000008152506200010d640100000000026401000000009004565b620004a3565b6000805460019081018083556040805160e08101825282815260208082018a81528284018a905260608301899052608083018890524260a084015260c0830187905293865284815291909420845181559151805192936200017793908501929190910190620003fe565b506040820151805162000195916002840191602090910190620003fe565b5060608201518051620001b3916003840191602090910190620003fe565b5060808201518051620001d1916004840191602090910190620003fe565b5060a0820151816005015560c08201518160060160006101000a81548160ff0219169083151502179055509050507f399624fb5e2373ffcdfcdb84cfad417518dd52d374862522a8a11fafe42888356000548585858542600060405180888152602001806020018060200180602001806020018781526020018615151515815260200185810385528b818151815260200191508051906020019080838360005b838110156200028b57818101518382015260200162000271565b50505050905090810190601f168015620002b95780820380516001836020036101000a031916815260200191505b5085810384528a5181528a516020918201918c019080838360005b83811015620002ee578181015183820152602001620002d4565b50505050905090810190601f1680156200031c5780820380516001836020036101000a031916815260200191505b5085810383528951815289516020918201918b019080838360005b838110156200035157818101518382015260200162000337565b50505050905090810190601f1680156200037f5780820380516001836020036101000a031916815260200191505b5085810382528851815288516020918201918a019080838360005b83811015620003b45781810151838201526020016200039a565b50505050905090810190601f168015620003e25780820380516001836020036101000a031916815260200191505b509b50505050505050505050505060405180910390a150505050565b828054600181600116156101000203166002900490600052602060002090601f016020900481019282601f106200044157805160ff191683800117855562000471565b8280016001018555821562000471579182015b828111156200047157825182559160200191906001019062000454565b506200047f92915062000483565b5090565b620004a091905b808211156200047f57600081556001016200048a565b90565b610ec380620004b36000396000f3fe6080604052600436106100615763ffffffff7c0100000000000000000000000000000000000000000000000000000000600035041663455f5024811461006657806372a9f819146100925780638d977672146102da578063b6cb58a5146104c7575b600080fd5b34801561007257600080fd5b506100906004803603602081101561008957600080fd5b50356104ee565b005b34801561009e57600080fd5b50610090600480360360808110156100b557600080fd5b8101906020810181356401000000008111156100d057600080fd5b8201836020820111156100e257600080fd5b8035906020019184600183028401116401000000008311171561010457600080fd5b91908080601f016020809104026020016040519081016040528093929190818152602001838380828437600092019190915250929594936020810193503591505064010000000081111561015757600080fd5b82018360208201111561016957600080fd5b8035906020019184600183028401116401000000008311171561018b57600080fd5b91908080601f01602080910402602001604051908101604052809392919081815260200183838082843760009201919091525092959493602081019350359150506401000000008111156101de57600080fd5b8201836020820111156101f057600080fd5b8035906020019184600183028401116401000000008311171561021257600080fd5b91908080601f016020809104026020016040519081016040528093929190818152602001838380828437600092019190915250929594936020810193503591505064010000000081111561026557600080fd5b82018360208201111561027757600080fd5b8035906020019184600183028401116401000000008311171561029957600080fd5b91908080601f016020809104026020016040519081016040528093929190818152602001838380828437600092019190915250929550610871945050505050565b3480156102e657600080fd5b50610304600480360360208110156102fd57600080fd5b5035610b4e565b60405180888152602001806020018060200180602001806020018781526020018615151515815260200185810385528b818151815260200191508051906020019080838360005b8381101561036357818101518382015260200161034b565b50505050905090810190601f1680156103905780820380516001836020036101000a031916815260200191505b5085810384528a5181528a516020918201918c019080838360005b838110156103c35781810151838201526020016103ab565b50505050905090810190601f1680156103f05780820380516001836020036101000a031916815260200191505b5085810383528951815289516020918201918b019080838360005b8381101561042357818101518382015260200161040b565b50505050905090810190601f1680156104505780820380516001836020036101000a031916815260200191505b5085810382528851815288516020918201918a019080838360005b8381101561048357818101518382015260200161046b565b50505050905090810190601f1680156104b05780820380516001836020036101000a031916815260200191505b509b50505050505050505050505060405180910390f35b3480156104d357600080fd5b506104dc610db6565b60408051918252519081900360200190f35b6104f6610dbc565b600082815260016020818152604092839020835160e0810185528154815281840180548651600296821615610100026000190190911695909504601f8101859004850286018501909652858552909491938584019390929083018282801561059f5780601f106105745761010080835404028352916020019161059f565b820191906000526020600020905b81548152906001019060200180831161058257829003601f168201915b5050509183525050600282810180546040805160206001841615610100026000190190931694909404601f810183900483028501830190915280845293810193908301828280156106315780601f1061060657610100808354040283529160200191610631565b820191906000526020600020905b81548152906001019060200180831161061457829003601f168201915b505050918352505060038201805460408051602060026001851615610100026000190190941693909304601f81018490048402820184019092528181529382019392918301828280156106c55780601f1061069a576101008083540402835291602001916106c5565b820191906000526020600020905b8154815290600101906020018083116106a857829003601f168201915b505050918352505060048201805460408051602060026001851615610100026000190190941693909304601f81018490048402820184019092528181529382019392918301828280156107595780601f1061072e57610100808354040283529160200191610759565b820191906000526020600020905b81548152906001019060200180831161073c57829003601f168201915b5050509183525050600582015460208083019190915260069092015460ff16151560409182015260c0830180511590526000858152600180845291902083518155838301518051949550859491936107b693850192910190610dfc565b50604082015180516107d2916002840191602090910190610dfc565b50606082015180516107ee916003840191602090910190610dfc565b506080820151805161080a916004840191602090910190610dfc565b5060a0820151600582015560c0918201516006909101805460ff191691151591909117905581015160408051848152911515602083015280517ffc8c3643622669a0bb21133ffa1738f6d5c2df6b162da4fed93691abb53c46569281900390910190a15050565b6000805460019081018083556040805160e08101825282815260208082018a81528284018a905260608301899052608083018890524260a084015260c0830187905293865284815291909420845181559151805192936108d993908501929190910190610dfc565b50604082015180516108f5916002840191602090910190610dfc565b5060608201518051610911916003840191602090910190610dfc565b506080820151805161092d916004840191602090910190610dfc565b5060a0820151816005015560c08201518160060160006101000a81548160ff0219169083151502179055509050507f399624fb5e2373ffcdfcdb84cfad417518dd52d374862522a8a11fafe42888356000548585858542600060405180888152602001806020018060200180602001806020018781526020018615151515815260200185810385528b818151815260200191508051906020019080838360005b838110156109e55781810151838201526020016109cd565b50505050905090810190601f168015610a125780820380516001836020036101000a031916815260200191505b5085810384528a5181528a516020918201918c019080838360005b83811015610a45578181015183820152602001610a2d565b50505050905090810190601f168015610a725780820380516001836020036101000a031916815260200191505b5085810383528951815289516020918201918b019080838360005b83811015610aa5578181015183820152602001610a8d565b50505050905090810190601f168015610ad25780820380516001836020036101000a031916815260200191505b5085810382528851815288516020918201918a019080838360005b83811015610b05578181015183820152602001610aed565b50505050905090810190601f168015610b325780820380516001836020036101000a031916815260200191505b509b50505050505050505050505060405180910390a150505050565b600160208181526000928352604092839020805481840180548651600296821615610100026000190190911695909504601f81018590048502860185019096528585529094919392909190830182828015610bea5780601f10610bbf57610100808354040283529160200191610bea565b820191906000526020600020905b815481529060010190602001808311610bcd57829003601f168201915b50505060028085018054604080516020601f6000196101006001871615020190941695909504928301859004850281018501909152818152959695945090925090830182828015610c7c5780601f10610c5157610100808354040283529160200191610c7c565b820191906000526020600020905b815481529060010190602001808311610c5f57829003601f168201915b5050505060038301805460408051602060026001851615610100026000190190941693909304601f8101849004840282018401909252818152949594935090830182828015610d0c5780601f10610ce157610100808354040283529160200191610d0c565b820191906000526020600020905b815481529060010190602001808311610cef57829003601f168201915b5050505060048301805460408051602060026001851615610100026000190190941693909304601f8101849004840282018401909252818152949594935090830182828015610d9c5780601f10610d7157610100808354040283529160200191610d9c565b820191906000526020600020905b815481529060010190602001808311610d7f57829003601f168201915b50505050600583015460069093015491929160ff16905087565b60005481565b60e0604051908101604052806000815260200160608152602001606081526020016060815260200160608152602001600081526020016000151581525090565b828054600181600116156101000203166002900490600052602060002090601f016020900481019282601f10610e3d57805160ff1916838001178555610e6a565b82800160010185558215610e6a579182015b82811115610e6a578251825591602001919060010190610e4f565b50610e76929150610e7a565b5090565b610e9491905b80821115610e765760008155600101610e80565b9056fea165627a7a72305820e464e381bb41b8cb59b8575033c7780c58b1c2f1a54ec608dd5980e9358ca5f10029",
  "source": "pragma solidity ^0.5.0;\r\n\r\ncontract  contrat {\r\n    // State variable = represent the state of the smart contract in the blockchain\r\n    uint public taskCount = 0;\r\n\r\n    struct Task{\r\n        uint id;\r\n        string seller;\r\n        string buyer;\r\n        string type_immoblier;\r\n        string price;\r\n        uint date;\r\n        bool completed;\r\n    }\r\n\r\n    mapping(uint => Task) public tasks;\r\n\r\n    event TaskCreated(\r\n        uint id,\r\n        string seller,\r\n        string buyer,\r\n        string type_immoblier,\r\n         string price,\r\n         uint date,\r\n        bool completed\r\n    );\r\n    event taskCompleted(\r\n        uint id,\r\n        bool completed\r\n    );\r\n\r\n    constructor() public {\r\n        createTask(\"My first smart contract\", \"nom\",\"pppp\", \"ppppp\");\r\n    }\r\n\r\n    function createTask(string memory _seller,string memory _buyer, string memory _type_immoblier, string memory  _price) public{\r\n        taskCount ++;\r\n        tasks[taskCount] = Task(taskCount, _seller, _buyer, _type_immoblier, _price, now, false);\r\n        emit TaskCreated(taskCount, _seller, _buyer, _type_immoblier, _price, now, false);\r\n    }\r\n\r\n    function toggleCompleted(uint _id) public {\r\n        // \"_\" = local variable \r\n        Task memory _task = tasks[_id];\r\n        _task.completed = !_task.completed;\r\n        tasks[_id] = _task;\r\n        emit taskCompleted(_id, _task.completed);\r\n    }\r\n}\r\n",
  "sourcePath": "C:/Users/DELL/Desktop/smartcontract/contracts/contart.sol",
  "compiler": {
    "name": "solc",
    "version": "0.5.0+commit.1d4f565a.Emscripten.clang"
  },
  "schemaVersion": "3.0.1",
  "updatedAt": "2022-02-07T14:30:15.261Z",
  "devdoc": {
    "methods": {}
  },
  "userdoc": {
    "methods": {}
  }
}